{
  "contractName": "AlertManagement",
  "abi": [
    {
      "anonymous": false,
      "inputs": [
        {
          "indexed": false,
          "internalType": "address",
          "name": "creator",
          "type": "address"
        },
        {
          "indexed": false,
          "internalType": "string",
          "name": "message",
          "type": "string"
        }
      ],
      "name": "AlertCreated",
      "type": "event"
    },
    {
      "constant": true,
      "inputs": [
        {
          "internalType": "uint256",
          "name": "",
          "type": "uint256"
        }
      ],
      "name": "alerts",
      "outputs": [
        {
          "internalType": "uint256",
          "name": "alertID",
          "type": "uint256"
        },
        {
          "internalType": "string",
          "name": "description",
          "type": "string"
        },
        {
          "internalType": "string",
          "name": "title",
          "type": "string"
        }
      ],
      "payable": false,
      "stateMutability": "view",
      "type": "function"
    },
    {
      "constant": true,
      "inputs": [
        {
          "internalType": "uint256",
          "name": "id",
          "type": "uint256"
        }
      ],
      "name": "getAlert",
      "outputs": [
        {
          "internalType": "string",
          "name": "",
          "type": "string"
        }
      ],
      "payable": false,
      "stateMutability": "view",
      "type": "function"
    },
    {
      "constant": false,
      "inputs": [
        {
          "internalType": "string",
          "name": "title",
          "type": "string"
        },
        {
          "internalType": "string",
          "name": "description",
          "type": "string"
        }
      ],
      "name": "createAlert",
      "outputs": [
        {
          "internalType": "uint256",
          "name": "",
          "type": "uint256"
        }
      ],
      "payable": false,
      "stateMutability": "nonpayable",
      "type": "function"
    }
  ],
  "bytecode": "0x60806040526000805534801561001457600080fd5b506107de806100246000396000f3fe608060405234801561001057600080fd5b50600436106100415760003560e01c8063171d073a146100465780631d0af4ba1461016057806385081886146102c6575b600080fd5b6100726004803603602081101561005c57600080fd5b810190808035906020019092919050505061036d565b604051808481526020018060200180602001838103835285818151815260200191508051906020019080838360005b838110156100bc5780820151818401526020810190506100a1565b50505050905090810190601f1680156100e95780820380516001836020036101000a031916815260200191505b50838103825284818151815260200191508051906020019080838360005b83811015610122578082015181840152602081019050610107565b50505050905090810190601f16801561014f5780820380516001836020036101000a031916815260200191505b509550505050505060405180910390f35b6102b06004803603604081101561017657600080fd5b810190808035906020019064010000000081111561019357600080fd5b8201836020820111156101a557600080fd5b803590602001918460018302840111640100000000831117156101c757600080fd5b91908080601f016020809104026020016040519081016040528093929190818152602001838380828437600081840152601f19601f8201169050808301925050505050505091929192908035906020019064010000000081111561022a57600080fd5b82018360208201111561023c57600080fd5b8035906020019184600183028401116401000000008311171561025e57600080fd5b91908080601f016020809104026020016040519081016040528093929190818152602001838380828437600081840152601f19601f8201169050808301925050505050505091929192905050506104c7565b6040518082815260200191505060405180910390f35b6102f2600480360360208110156102dc57600080fd5b81019080803590602001909291905050506104f2565b6040518080602001828103825283818151815260200191508051906020019080838360005b83811015610332578082015181840152602081019050610317565b50505050905090810190601f16801561035f5780820380516001836020036101000a031916815260200191505b509250505060405180910390f35b6001602052806000526040600020600091509050806000015490806001018054600181600116156101000203166002900480601f01602080910402602001604051908101604052809291908181526020018280546001816001161561010002031660029004801561041f5780601f106103f45761010080835404028352916020019161041f565b820191906000526020600020905b81548152906001019060200180831161040257829003601f168201915b505050505090806002018054600181600116156101000203166002900480601f0160208091040260200160405190810160405280929190818152602001828054600181600116156101000203166002900480156104bd5780601f10610492576101008083540402835291602001916104bd565b820191906000526020600020905b8154815290600101906020018083116104a057829003601f168201915b5050505050905083565b600080600081548092919060010191905055506104e760005484846105aa565b600054905092915050565b6060600160008381526020019081526020016000206002018054600181600116156101000203166002900480601f01602080910402602001604051908101604052809291908181526020018280546001816001161561010002031660029004801561059e5780601f106105735761010080835404028352916020019161059e565b820191906000526020600020905b81548152906001019060200180831161058157829003601f168201915b50505050509050919050565b600083116105b757600080fd5b6040518060600160405280848152602001828152602001838152506001600060018603815260200190815260200160002060008201518160000155602082015181600101908051906020019061060e929190610704565b50604082015181600201908051906020019061062b929190610704565b509050507fe509036400116516d1abe54e9b547720f42f7b415b843f271411995dc6a68c6f3382604051808373ffffffffffffffffffffffffffffffffffffffff1673ffffffffffffffffffffffffffffffffffffffff16815260200180602001828103825283818151815260200191508051906020019080838360005b838110156106c45780820151818401526020810190506106a9565b50505050905090810190601f1680156106f15780820380516001836020036101000a031916815260200191505b50935050505060405180910390a1505050565b828054600181600116156101000203166002900490600052602060002090601f016020900481019282601f1061074557805160ff1916838001178555610773565b82800160010185558215610773579182015b82811115610772578251825591602001919060010190610757565b5b5090506107809190610784565b5090565b6107a691905b808211156107a257600081600090555060010161078a565b5090565b9056fea265627a7a723158205e54ed94997a5a4c752e192967da9cf70ee1088cfdb8801979db91a478c00f9064736f6c63430005100032",
  "source": "// SPDX-License-Identifier: GPL-3.0\r\n// pragma solidity >=0.8.0 <=0.9.0;\r\npragma solidity >=0.5.16;\r\ncontract AlertManagement{\r\n\r\nuint alert_Count=0;\r\n\r\nenum Alert_Status{\r\n    Open, \r\n    Closed\r\n}\r\n\r\nenum Alert_Type{\r\n    Fire_Alert,\r\n    Theft_Alert,\r\n    Health_Emergency_Alert\r\n}\r\n\r\nstruct Alert{\r\n    uint alertID;\r\n    string description;\r\n    string title;\r\n}\r\n\r\nevent AlertCreated(address creator, string message);\r\n\r\nmapping(uint => Alert) public alerts;\r\n\r\nfunction getAlert(uint id) public view returns(string memory){\r\n    return alerts[id].title;\r\n}\r\n\r\nfunction setAlert(uint id, string memory title, string memory desc) private{\r\n    require(id>0);\r\n    alerts[id-1] = Alert({alertID:id, title:title, description:desc});\r\n    emit AlertCreated(msg.sender, desc);\r\n}\r\n\r\nfunction createAlert(string memory title, string memory description) public returns(uint){\r\n    alert_Count++;\r\n    setAlert(alert_Count, title, description);\r\n    return alert_Count;\r\n}\r\n\r\n}",
  "sourcePath": "C:\\Users\\varunbailapudi\\Documents\\Fall 2023\\CSC 299\\HardHat Impl\\New folder\\BC Alerts\\contracts\\AlertManagement.sol",
  "compiler": {
    "name": "solc",
    "version": "0.5.16+commit.9c3226ce.Emscripten.clang"
  },
  "schemaVersion": "3.4.16",
  "updatedAt": "2023-11-30T21:49:26.890Z",
  "networkType": "ethereum",
  "devdoc": {
    "methods": {}
  },
  "userdoc": {
    "methods": {}
  }
}