{
  "contractName": "AlertManagement",
  "abi": [
    {
      "anonymous": false,
      "inputs": [
        {
          "indexed": false,
          "internalType": "uint256",
          "name": "alertId",
          "type": "uint256"
        }
      ],
      "name": "AlertCreated",
      "type": "event"
    },
    {
      "constant": true,
      "inputs": [
        {
          "internalType": "uint256",
          "name": "",
          "type": "uint256"
        }
      ],
      "name": "alerts",
      "outputs": [
        {
          "internalType": "uint256",
          "name": "alertID",
          "type": "uint256"
        },
        {
          "internalType": "string",
          "name": "description",
          "type": "string"
        },
        {
          "internalType": "string",
          "name": "title",
          "type": "string"
        },
        {
          "internalType": "enum AlertManagement.Alert_Status",
          "name": "status",
          "type": "uint8"
        }
      ],
      "payable": false,
      "stateMutability": "view",
      "type": "function"
    },
    {
      "constant": true,
      "inputs": [],
      "name": "getAlert_Close_Status",
      "outputs": [
        {
          "internalType": "enum AlertManagement.Alert_Status",
          "name": "",
          "type": "uint8"
        }
      ],
      "payable": false,
      "stateMutability": "pure",
      "type": "function"
    },
    {
      "constant": false,
      "inputs": [
        {
          "internalType": "uint256",
          "name": "alertId",
          "type": "uint256"
        }
      ],
      "name": "close_Alert_By_Responder",
      "outputs": [
        {
          "internalType": "enum AlertManagement.Alert_Status",
          "name": "",
          "type": "uint8"
        }
      ],
      "payable": false,
      "stateMutability": "nonpayable",
      "type": "function"
    },
    {
      "constant": true,
      "inputs": [
        {
          "internalType": "uint256",
          "name": "id",
          "type": "uint256"
        }
      ],
      "name": "getAlert",
      "outputs": [
        {
          "internalType": "string",
          "name": "",
          "type": "string"
        }
      ],
      "payable": false,
      "stateMutability": "view",
      "type": "function"
    },
    {
      "constant": false,
      "inputs": [
        {
          "internalType": "string",
          "name": "title",
          "type": "string"
        },
        {
          "internalType": "string",
          "name": "description",
          "type": "string"
        }
      ],
      "name": "createAlert",
      "outputs": [
        {
          "internalType": "uint256",
          "name": "",
          "type": "uint256"
        }
      ],
      "payable": false,
      "stateMutability": "nonpayable",
      "type": "function"
    }
  ],
  "bytecode": "0x60806040526000805534801561001457600080fd5b50610935806100246000396000f3fe608060405234801561001057600080fd5b50600436106100575760003560e01c8063171d073a1461005c5780631d0af4ba1461018b57806373e87515146102f1578063850818861461031d578063e5c620b6146103c4575b600080fd5b6100886004803603602081101561007257600080fd5b8101908080359060200190929190505050610414565b6040518085815260200180602001806020018460018111156100a657fe5b60ff168152602001838103835286818151815260200191508051906020019080838360005b838110156100e65780820151818401526020810190506100cb565b50505050905090810190601f1680156101135780820380516001836020036101000a031916815260200191505b50838103825285818151815260200191508051906020019080838360005b8381101561014c578082015181840152602081019050610131565b50505050905090810190601f1680156101795780820380516001836020036101000a031916815260200191505b50965050505050505060405180910390f35b6102db600480360360408110156101a157600080fd5b81019080803590602001906401000000008111156101be57600080fd5b8201836020820111156101d057600080fd5b803590602001918460018302840111640100000000831117156101f257600080fd5b91908080601f016020809104026020016040519081016040528093929190818152602001838380828437600081840152601f19601f8201169050808301925050505050505091929192908035906020019064010000000081111561025557600080fd5b82018360208201111561026757600080fd5b8035906020019184600183028401116401000000008311171561028957600080fd5b91908080601f016020809104026020016040519081016040528093929190818152602001838380828437600081840152601f19601f820116905080830192505050505050509192919290505050610581565b6040518082815260200191505060405180910390f35b6102f96105ac565b6040518082600181111561030957fe5b60ff16815260200191505060405180910390f35b6103496004803603602081101561033357600080fd5b81019080803590602001909291905050506105b5565b6040518080602001828103825283818151815260200191508051906020019080838360005b8381101561038957808201518184015260208101905061036e565b50505050905090810190601f1680156103b65780820380516001836020036101000a031916815260200191505b509250505060405180910390f35b6103f0600480360360208110156103da57600080fd5b810190808035906020019092919050505061066d565b6040518082600181111561040057fe5b60ff16815260200191505060405180910390f35b6001602052806000526040600020600091509050806000015490806001018054600181600116156101000203166002900480601f0160208091040260200160405190810160405280929190818152602001828054600181600116156101000203166002900480156104c65780601f1061049b576101008083540402835291602001916104c6565b820191906000526020600020905b8154815290600101906020018083116104a957829003601f168201915b505050505090806002018054600181600116156101000203166002900480601f0160208091040260200160405190810160405280929190818152602001828054600181600116156101000203166002900480156105645780601f1061053957610100808354040283529160200191610564565b820191906000526020600020905b81548152906001019060200180831161054757829003601f168201915b5050505050908060030160009054906101000a900460ff16905084565b600080600081548092919060010191905055506105a16000548484610732565b600054905092915050565b60006001905090565b6060600160008381526020019081526020016000206002018054600181600116156101000203166002900480601f0160208091040260200160405190810160405280929190818152602001828054600181600116156101000203166002900480156106615780601f1061063657610100808354040283529160200191610661565b820191906000526020600020905b81548152906001019060200180831161064457829003601f168201915b50505050509050919050565b600080548211156106c9576040517f08c379a000000000000000000000000000000000000000000000000000000000815260040180806020018281038252602d8152602001806108d4602d913960400191505060405180910390fd5b6106d16105ac565b6001600084815260200190815260200160002060030160006101000a81548160ff0219169083600181111561070257fe5b02179055506001600083815260200190815260200160002060030160009054906101000a900460ff169050919050565b6000831161073f57600080fd5b60405180608001604052808481526020018281526020018381526020016000600181111561076957fe5b815250600160006001860381526020019081526020016000206000820151816000015560208201518160010190805190602001906107a892919061082e565b5060408201518160020190805190602001906107c592919061082e565b5060608201518160030160006101000a81548160ff021916908360018111156107ea57fe5b02179055509050507feea119c2808a7787437044c26b843debbae8bf3964885ff18ff451681afee7d5836040518082815260200191505060405180910390a1505050565b828054600181600116156101000203166002900490600052602060002090601f016020900481019282601f1061086f57805160ff191683800117855561089d565b8280016001018555821561089d579182015b8281111561089c578251825591602001919060010190610881565b5b5090506108aa91906108ae565b5090565b6108d091905b808211156108cc5760008160009055506001016108b4565b5090565b9056fe416c657274207769746820746865206d656e74696f6e6564204944206973206e6f742072656769737465726564a265627a7a7231582044c55e739eb4686ad9e7c55e5f0c57656c842643e7b187a1a2c585a1aa7b270e64736f6c63430005100032",
  "source": "// SPDX-License-Identifier: GPL-3.0\r\n// pragma solidity >=0.8.0 <=0.9.0;\r\npragma solidity >=0.5.16;\r\ncontract AlertManagement{\r\n\r\nuint alert_Count=0;\r\n\r\nenum Alert_Status{\r\n    Open, \r\n    Closed\r\n}\r\n\r\nenum Alert_Type{\r\n    Fire_Alert,\r\n    Theft_Alert,\r\n    Health_Emergency_Alert\r\n}\r\n\r\nstruct Alert{\r\n    uint alertID;\r\n    string description;\r\n    string title;\r\n    // address recipient_addrress;\r\n    // Alert_Type type_Of_Alert;\r\n    Alert_Status status;\r\n    // address responder_address;\r\n}\r\n\r\nevent AlertCreated(uint alertId);\r\n\r\nmapping(uint => Alert) public alerts;\r\n\r\nfunction getAlert_Close_Status() public pure returns(Alert_Status){\r\n    return Alert_Status.Closed;\r\n}\r\n\r\nfunction close_Alert_By_Responder(uint alertId) public returns(Alert_Status){\r\n    require(alertId<=alert_Count, \"Alert with the mentioned ID is not registered\");\r\n    alerts[alertId].status = getAlert_Close_Status();\r\n    return alerts[alertId].status;\r\n}\r\n\r\nfunction getAlert(uint id) public view returns(string memory){\r\n    return alerts[id].title;\r\n}\r\n\r\nfunction setAlert(uint id, string memory title, string memory desc) private{\r\n    require(id>0);\r\n    alerts[id-1] = Alert({alertID:id, title:title, description:desc, status: Alert_Status.Open});\r\n    emit AlertCreated(id);\r\n}\r\n\r\nfunction createAlert(string memory title, string memory description) public returns(uint){\r\n    alert_Count++;\r\n    setAlert(alert_Count, title, description);\r\n    return alert_Count;\r\n}\r\n\r\n}",
  "sourcePath": "C:\\Users\\varunbailapudi\\Documents\\Fall 2023\\CSC 299\\HardHat Impl\\New folder\\BC Alerts\\contracts\\AlertManagement.sol",
  "compiler": {
    "name": "solc",
    "version": "0.5.16+commit.9c3226ce.Emscripten.clang"
  },
  "schemaVersion": "3.4.16",
  "updatedAt": "2023-11-30T22:57:18.514Z",
  "devdoc": {
    "methods": {}
  },
  "userdoc": {
    "methods": {}
  }
}