{
  "contractName": "Responder",
  "abi": [
    {
      "inputs": [
        {
          "internalType": "address",
          "name": "_address",
          "type": "address"
        }
      ],
      "payable": false,
      "stateMutability": "nonpayable",
      "type": "constructor"
    },
    {
      "constant": true,
      "inputs": [],
      "name": "management",
      "outputs": [
        {
          "internalType": "contract AlertManagement",
          "name": "",
          "type": "address"
        }
      ],
      "payable": false,
      "stateMutability": "view",
      "type": "function"
    },
    {
      "constant": false,
      "inputs": [
        {
          "internalType": "uint256",
          "name": "alertId",
          "type": "uint256"
        }
      ],
      "name": "handleAlert",
      "outputs": [],
      "payable": false,
      "stateMutability": "nonpayable",
      "type": "function"
    }
  ],
  "bytecode": "0x608060405234801561001057600080fd5b506040516102883803806102888339818101604052602081101561003357600080fd5b8101908080519060200190929190505050806000806101000a81548173ffffffffffffffffffffffffffffffffffffffff021916908373ffffffffffffffffffffffffffffffffffffffff160217905550506101f4806100946000396000f3fe608060405234801561001057600080fd5b50600436106100365760003560e01c806388a8d6021461003b5780639bd8216d14610085575b600080fd5b6100436100b3565b604051808273ffffffffffffffffffffffffffffffffffffffff1673ffffffffffffffffffffffffffffffffffffffff16815260200191505060405180910390f35b6100b16004803603602081101561009b57600080fd5b81019080803590602001909291905050506100d8565b005b6000809054906101000a900473ffffffffffffffffffffffffffffffffffffffff1681565b6000809054906101000a900473ffffffffffffffffffffffffffffffffffffffff1673ffffffffffffffffffffffffffffffffffffffff166305d2bc1282306040518363ffffffff1660e01b8152600401808381526020018273ffffffffffffffffffffffffffffffffffffffff1673ffffffffffffffffffffffffffffffffffffffff16815260200192505050602060405180830381600087803b15801561018057600080fd5b505af1158015610194573d6000803e3d6000fd5b505050506040513d60208110156101aa57600080fd5b8101908080519060200190929190505050505056fea265627a7a72315820c177804ce838a18dafca90eedefa1f4cee8f04f550c196edc2e90c798fd19d0964736f6c63430005100032",
  "source": "// SPDX-License-Identifier: GPL-3.0\r\n// pragma solidity >=0.8.0 <=0.9.0;\r\npragma solidity >=0.5.16;\r\nimport \"./AlertManagement.sol\";\r\ncontract Responder{\r\n AlertManagement public management;\r\n\r\n constructor(address _address) public{\r\n    management = AlertManagement(_address);\r\n }\r\n\r\nfunction handleAlert(uint alertId) public{\r\n    management.close_Alert_By_Responder(alertId, address(this));\r\n}\r\n\r\n// function handleAlertByAddress(string memory addr) public{\r\n//     management.close_Alert_By_Responder_By_Addr(addr, address(this));\r\n// }\r\n\r\n}",
  "sourcePath": "C:\\Users\\varunbailapudi\\Documents\\Fall 2023\\CSC 299\\HardHat Impl\\New folder\\BC Alerts\\contracts\\Responder.sol",
  "compiler": {
    "name": "solc",
    "version": "0.5.16+commit.9c3226ce.Emscripten.clang"
  },
  "schemaVersion": "3.4.16",
  "updatedAt": "2023-12-11T20:10:02.022Z",
  "devdoc": {
    "methods": {}
  },
  "userdoc": {
    "methods": {}
  }
}