{
  "contractName": "Responder",
  "abi": [
    {
      "constant": true,
      "inputs": [],
      "name": "management",
      "outputs": [
        {
          "internalType": "contract AlertManagement",
          "name": "",
          "type": "address"
        }
      ],
      "payable": false,
      "stateMutability": "view",
      "type": "function"
    },
    {
      "constant": false,
      "inputs": [],
      "name": "respond",
      "outputs": [],
      "payable": false,
      "stateMutability": "nonpayable",
      "type": "function"
    }
  ],
  "bytecode": "0x608060405234801561001057600080fd5b5060e38061001f6000396000f3fe6080604052348015600f57600080fd5b506004361060325760003560e01c806388a8d602146037578063db16aab914607f575b600080fd5b603d6087565b604051808273ffffffffffffffffffffffffffffffffffffffff1673ffffffffffffffffffffffffffffffffffffffff16815260200191505060405180910390f35b608560ac565b005b6000809054906101000a900473ffffffffffffffffffffffffffffffffffffffff1681565b56fea265627a7a7231582059343d6381eb4f5b418931dc39e417e7be10cc4ce4434c8c9035918f6452cb3264736f6c63430005100032",
  "source": "// SPDX-License-Identifier: GPL-3.0\r\n// pragma solidity >=0.8.0 <=0.9.0;\r\npragma solidity >=0.5.16;\r\nimport \"./AlertManagement.sol\";\r\ncontract Responder{\r\n AlertManagement public management;\r\n\r\n//  constructor(address _address) public{\r\n//     management = AlertManagement(_address);\r\n//  }\r\n\r\n// function handleAlert(uint alertId) public{\r\n//     management.close_Alert_By_Responder(alertId);\r\n// }\r\n\r\nfunction respond() public{\r\n    \r\n}\r\n\r\n}",
  "sourcePath": "C:\\Users\\varunbailapudi\\Documents\\Fall 2023\\CSC 299\\HardHat Impl\\New folder\\BC Alerts\\contracts\\Responder.sol",
  "compiler": {
    "name": "solc",
    "version": "0.5.16+commit.9c3226ce.Emscripten.clang"
  },
  "schemaVersion": "3.4.16",
  "updatedAt": "2023-11-30T22:57:19.904Z",
  "networkType": "ethereum",
  "devdoc": {
    "methods": {}
  },
  "userdoc": {
    "methods": {}
  }
}